:020000040000FA
:1000000000800220150400003504000039040000BF
:100010003D04000041040000450400000000000011
:10002000FFFFFFFF00000000000000004120000073
:100030004D04000000000000611E0000F9250000D2
:10004000590400005D040000610400006504000024
:10005000690400006D0400007104000075040000D4
:10006000790400007D040000810400008504000084
:10007000890400008D040000910400009504000034
:10008000990400009D040000A1040000A5040000E4
:10009000A9040000AD040000B1040000B504000094
:1000A000B9040000BD040000C1040000C504000044
:1000B000C9040000CD040000D1040000D5040000F4
:1000C000D9040000DD040000E1040000E5040000A4
:1000D000E9040000ED040000F1040000F504000054
:1000E000F9040000FD040000010500000505000002
:1000F000090500000D0500001105000015050000B0
:10010000190500001D05000021050000250500005F
:10011000290500002D05000031050000350500000F
:100120003905000000000000000000000000000091
:1001300000000000000000000000000000000000BF
:1001400000000000000000000000000000000000AF
:10015000000000000000000000000000000000009F
:10016000000000000000000000000000000000008F
:10040000DFF80CD000F09CF900480047553100009F
:1004100000800220382003490860034880470348D1
:10042000004700BF20020040292600000104000010
:10043000FFF7FEBF41480047414800474148004799
:10044000414800474148004741480047414800476C
:10045000414800474148004741480047414800475C
:10046000414800474148004741480047414800474C
:10047000414800474148004741480047414800473C
:10048000414800474148004741480047414800472C
:10049000414800474148004741480047414800471C
:1004A000414800474148004741480047414800470C
:1004B00041480047414800474148004741480047FC
:1004C00041480047414800474148004741480047EC
:1004D00041480047414800474148004741480047DC
:1004E00041480047414800474148004741480047CC
:1004F00041480047414800474148004741480047BC
:1005000041480047414800474148004741480047AB
:10051000414800474148004741480047414800479B
:10052000414800474148004741480047414800478B
:100530004148004741480047414800473504000012
:10054000390400003D04000041040000450400009F
:10055000412000004D040000611E0000F92500004C
:1005600031040000310400006915000091150000FD
:10057000091C0000411C0000791C0000B11C000097
:100580003104000031040000310400003104000097
:100590003104000031040000D910000029110000CE
:1005A00079110000C9110000191200006912000041
:1005B000B91200000D1300003104000031040000E6
:1005C0003104000031040000310400003104000057
:1005D0003104000031040000310400003104000047
:1005E000E91C0000211D0000591D0000911D0000A4
:1005F0003104000031040000310400003104000027
:1006000061130000B5130000310400003104000044
:100610003104000031040000310400003104000006
:1006200031040000310400003104000031040000F6
:1006300031040000310400003104000031040000E6
:10064000310400002DE9F05F0546002092469B46EC
:1006500088460646814640241BE0284641464746D8
:10066000224600F05CF853465A46C01A914110D316
:1006700011461846224600F043F82D1A67EB010890
:100680004F4622460120002100F03AF817EB0009FE
:100690004E41201EA4F10104DFDC484631462A46C3
:1006A0004346BDE8F09F10B540EA01040346A407A5
:1006B00003D009E010C9121F10C3042AFAD203E0C4
:1006C00011F8014B03F8014B521EF9D210BDD2B202
:1006D00001E000F8012B491EFBD270470022F6E72B
:1006E00010B513460A4604461946FFF7F0FF2046A8
:1006F00010BD421C10F8011B0029FBD1801A704765
:10070000202A04DB203A00FA02F1002070479140D1
:10071000C2F1200320FA03F3194390407047202AC6
:1007200004DB203A21FA02F00021704721FA02F39B
:10073000D040C2F1200291400843194670470000A2
:10074000064C074D06E0E06840F0010394E807001E
:1007500098471034AC42F6D3FFF756FEF040000045
:10076000104100002DE9F04387B0042001F02CFB7C
:1007700041F20018C0F21008404600F08FF840F235
:10078000031001F021FB40F28026C4F20006D6F8E7
:10079000840249F2005920F00200C0F6BA29C6F8D6
:1007A0008402484601F042FB484600F023FA43F633
:1007B000A050C0F2000090E89E00D0E905508DE8FE
:1007C0009E00CDE905504FF4827000F067F868464E
:1007D00000F05AFA4DF60000C0F2B85000F0B0FA3E
:1007E00020200121002200F0E7F92620002101222B
:1007F00000F0E2F926200121002200F0DDF908F5E1
:10080000001000F04BF84FF4857000F047F83068A6
:1008100020F00300306040F20000C2F20000C0F897
:10082000009007B0BDE8F08380B54FF4867000F00B
:1008300035F80B20C0F2010001F092FB002000F01F
:100840001BF9034600204FF4E131012200F006FBC2
:10085000002804BF002080BD43F6FA5102A0C0F278
:100860000001392202F038FC6B5374617475735FB8
:1008700053756363657373203D3D20726573756CBA
:100880007400000080B500F041F81D2001F004F96B
:100890001E20BDE8804001F0FFB8000010B540F018
:1008A0000041B1F1004F28D04C2140F2200E00222F
:1008B000C4F200014FF0010CC4F2040E03050FD185
:1008C00005E000BFE4B201EB8303C3F83442002A21
:1008D00018BF10BD000B4FF001020ED00305F6D07B
:1008E000C0F30324C3B21F2BA4F10104EAD1E3B285
:1008F000C1F800C0CEF80030E9E710BD40F240205A
:10090000C4F200004FF400610160704740F2202003
:10091000C4F200004FF4005101607047020A4C21FC
:10092000022AC4F2000108D8C0B2012303FA00F081
:1009300001EB8201C1F8D401704701220A60C0B204
:10094000142102FA00F0C4F20401086070470000AC
:10095000020A4C21022AC4F2000108D8C0B20123C5
:1009600003FA00F001EB8201C1F8D40170470122C3
:100970000A60C0B2142102FA00F0C4F20401086057
:1009800070470000020A4C21022AC4F2000108D874
:10099000C0B2012303FA00F001EB8201C1F8D401D7
:1009A000704701220A60C0B2142102FA00F0C4F2BA
:1009B000040108607047000040F22020C4F20000EB
:1009C0004FF400610160704740F22020C4F2000043
:1009D0004FF480210160704740F23060C4F20000A3
:1009E000016841F400710160416841F00801416013
:1009F0007047000040F28020C4F2000041680329E3
:100A000004BF4FF40040704702291CD000291CBFCE
:100A1000002070470168002908BF00F06DB8016828
:100A2000012902BF41F60030C0F2B70070470168EB
:100A3000022908BF00F08EB80068032814BF002008
:100A400000F068B8704700F07FB8000040F2E8207E
:100A5000C4F200000068032884BF00207047DFE86C
:100A600000F002080406FFF7C5BF00F045B800F02B
:100A700051B800F069B8000010B540F2B024C4F2DB
:100A8000000454F820100020042988BF10BDDFE8BE
:100A900001F0030711101500BDE8104000F02CB85C
:100AA00000F038F8D4F8D810012252FA81F1B0FBE6
:100AB000F1F010BDBDE8104000F046B8BDE81040B0
:100AC000AFF3008010B540F2A034C4F200042068F7
:100AD000C0B2FF281CBF002010BDFFF7B7FF22687F
:100AE0000302010E120A012060F31F2218460023A0
:100AF000FFF7A8FD10BD000040F21060C4F2000036
:100B00000068C0064FF000005CBF41F60030C0F244
:100B1000B700704740F20050C4F20000D0F8101146
:100B2000C90602D40168490001D40020704700685A
:100B300040044DF60000C0F2B8505CBF46F60040DD
:100B4000C0F2DC207047000040F21C10C2F200002E
:100B50000068704740F20850C4F20000D0F8081155
:100B6000C90244BF00207047016800683E2202EAC3
:100B70004101C0F3441004A2105C4CF25032023127
:100B80005043B0FBF1F0704700080C0F1214181A14
:100B90001C1E2022242628292A2C2D2E30313234C6
:100BA000353638393A3B3C3D40F28450C4F20000BF
:100BB000006800F001007047002A40F20032C4F2E1
:100BC00000021CBF4FF0005342F820304B1E00299A
:100BD00008BF4FF0804342F82030704740F2004198
:100BE000C4F200010A6822F4704242EA0030086050
:100BF00070470000014641F60130C0F2B700814263
:100C000002D20020FFF7EABF43F20160C0F26E108B
:100C1000814202D20120FFF7E1BF45F20110C0F28C
:100C20002520814202D20220FFF7D8BF48F201708E
:100C3000C0F29330814202D20320FFF7CFBF4DF6BE
:100C40000100C0F2B850814202D20420FFF7C6BFB3
:100C500040F60160C0F22770814202D20520FFF702
:100C6000BDBF44F20140C0F69500814202D2062089
:100C7000FFF7B4BF47F60122C0F6032208209142D5
:100C800038BF0720FFF7AABF2DE9F04140F2905589
:100C90004FF60051C4F20005CFF6FF7169580446C3
:100CA00001F00701012908BFFFF796FE01F0B0F837
:100CB000162001F0A1F894E80F0045F8100C41F45B
:100CC000806045F8081C45F8080C42F0800045F8A3
:100CD000042C45F8040C43F400302B602860207E7F
:100CE00080071CD02E6845F6D258C0F204081620A2
:100CF00026F40037C5F8008001F072F808F50030DE
:100D000049F200512860C0F6BA21482001F05CF990
:100D100046F400302F602860162001F061F8207E34
:100D2000800703D5FFF740FF0028FBD0216940F280
:100D30001C12C2F2000200201160BDE8F081000028
:100D4000F0B581B0044641F60030C0F2B7004DF670
:100D500000068442C0F2B85618BFB44228D140F20F
:100D600000550420C4F2000501F03AF841F60131C3
:100D70002868C0F2B7018C4213D349F2DF1100F0AA
:100D80008077C0F20031204688472868B44240EAA4
:100D9000070012BF40F0404040F0404040F4804027
:100DA00002E0286820F080402860002001B0F0BDFB
:100DB00046F60040C0F2DC208442D0D0012001B0D1
:100DC000F0BD000070B54FF0000C00F801CB0968D1
:100DD000AAB181B34FF0FF3291FBF3FC00EB020E9E
:100DE0000CFB13110132002948BF494230318EF803
:100DF0000110BCF1000F6146EED1501C70BDD1B1A5
:100E0000049A4FF0570C002A4FF0FF3218BF4FF0F2
:100E1000370C00BFB1FBF3FE66460EFB13148518BA
:100E20000A2C38BF302634440132994271466C7026
:100E3000F0D2501C70BD30210170012070BD000047
:100E400080B582B000208DF807000DF1070000F09A
:100E5000B7F89DF8070002B080BD000010B588B05B
:100E6000CDE900310021ADF808108DF80A0040F2FC
:100E70000110012AADF80B008DF8182025D140F2A1
:100E800020146846C2F200040790204600211C226C
:100E9000FFF726FC04A92046246101F0E3F8C0B95D
:100EA000206904F1140101F043F9F0B9206904F15B
:100EB000180101F009F920BB206940F26801C2F273
:100EC00000010860002008B010BD43F2215008B0B6
:100ED00010BD44F2C50044F29201C0F20000C0F21D
:100EE00000014FF43D7202F0F7F844F2C50044F2FD
:100EF0009201C0F20000C0F2000140F2FE2202F0B6
:100F0000EBF844F2C50044F29201C0F20000C0F2D6
:100F1000000140F2093202F0DFF800002DE9F04153
:100F2000012BB8BFBDE8F0811C4615460E460746AA
:100F30004FF0000808E000BF3068013C3D543068C5
:100F400000F10100306009D03168481C8028F3D3DB
:100F5000384600F05FF8C6F80080EDE7BDE8F081A4
:100F600083B0B0B5A1B0044625A80EC06846802164
:100F7000FFF7B4FB40F26800C2F20000006878B1ED
:100F800040F61D736D4625A9C0F2000320462A468F
:100F9000209101F01BFA0146284600F03BF800E0E2
:100FA000002021B0BDE8B04003B0704780B582B0EA
:100FB000019001A8012100F02DF802B080BD0000D1
:100FC00010B570B140F26801C2F2000109684FF03B
:100FD000FF3421B100F010F8002808BF012420469A
:100FE00010BD44F2920103A0C0F200014FF41A7246
:100FF00002F072F86368000080B5014640F22010EC
:10100000C2F200001830012201F0FCF8002818BFDD
:10101000012080BD10B5D0B10C4621B3024640F28C
:101020006800C2F20000006870B140F22010C2F205
:10103000000014301146224601F03CF9002818BF88
:101040004FF0FF34204610BD0024204610BD44F26E
:10105000BA0044F29201C0F20000C0F2000140F276
:10106000E91202F039F844F2B00044F29201C0F201
:101070000000C0F200014FF4F57202F02DF80000FC
:101080000046401E0028FCD170470000EFF310809E
:10109000EFF3108172B67047EFF31080EFF3108119
:1010A00072B6704780F310887047000080F3108894
:1010B0007047000010F1800118BF01F0DDBF7047DC
:1010C00010F1800118BF01F0E7BF704710F18001F7
:1010D00018BF01F0F1BF704780B540F26410C2F252
:1010E0000000026862B140F23C10C2F200000168E8
:1010F00046F20000C4F208009047BFF34F8F80BD56
:1011000043F6107102A0C0F20001B62201F0E4FF24
:10111000735F666C6578636F6D6D49727148616E5F
:10112000646C65725B305D0080B540F26410C2F2A1
:101130000000426862B140F23C10C2F20000416817
:1011400047F20000C4F208009047BFF34F8F80BD04
:1011500043F6107102A0C0F20001C32201F0BCFFEF
:10116000735F666C6578636F6D6D49727148616E0F
:10117000646C65725B315D0080B540F26410C2F250
:101180000000826862B140F23C10C2F20000816847
:1011900048F20000C4F208009047BFF34F8F80BDB3
:1011A00043F6107102A0C0F20001D02201F094FFBA
:1011B000735F666C6578636F6D6D49727148616EBF
:1011C000646C65725B325D0080B540F26410C2F2FF
:1011D0000000C26862B140F23C10C2F20000C16877
:1011E00049F20000C4F208009047BFF34F8F80BD62
:1011F00043F6107102A0C0F20001DD2201F06CFF85
:10120000735F666C6578636F6D6D49727148616E6E
:10121000646C65725B335D0080B540F26410C2F2AD
:101220000000026962B140F23C10C2F200000169A4
:101230004AF20000C4F208009047BFF34F8F80BD10
:1012400043F6107102A0C0F20001EA2201F044FF4F
:10125000735F666C6578636F6D6D49727148616E1E
:10126000646C65725B345D0080B540F26410C2F25C
:101270000000426962B140F23C10C2F200004169D4
:1012800046F20000C4F209009047BFF34F8F80BDC3
:1012900043F6107102A0C0F20001F82201F01CFF19
:1012A000735F666C6578636F6D6D49727148616ECE
:1012B000646C65725B355D0080B540F26410C2F20B
:1012C0000000826962B140F23C10C2F20000816904
:1012D00047F20000C4F209009047BFF34F8F80BD72
:1012E00043F6107103A0C0F2000140F2051201F0B4
:1012F000F3FE00BF735F666C6578636F6D6D497256
:101300007148616E646C65725B365D0080B540F259
:101310006410C2F20000C26962B140F23C10C2F235
:101320000000C16948F20000C4F209009047BFF311
:101330004F8F80BD43F6107103A0C0F200014FF43F
:10134000897201F0C9FE00BF735F666C6578636FD8
:101350006D6D49727148616E646C65725B375D00DA
:1013600080B540F26410C2F20000026A62B140F23D
:101370003C10C2F20000016A49F20000C4F2090008
:101380009047BFF34F8F80BD43F6107103A0C0F2AA
:10139000000140F21F1201F09FFE00BF735F666CF8
:1013A0006578636F6D6D49727148616E646C6572CA
:1013B0005B385D0080B540F26410C2F20000426A02
:1013C00062B140F23C10C2F20000416A4AF20000F1
:1013D000C4F209009047BFF34F8F80BD43F61071F0
:1013E00003A0C0F200014FF4967201F075FE00BF39
:1013F000735F666C6578636F6D6D49727148616E7D
:10140000646C65725B395D000146002008A200BF74
:1014100052F820308B4208BF704701300A28F7D1BC
:1014200043F610710CA0C0F200016A2201F054FED4
:1014300000600840007008400080084000900840AC
:1014400000A0084000600940007009400080094089
:101450000090094000A0094069203C2046534C5FA1
:10146000464541545552455F534F435F464C45589E
:10147000434F4D4D5F434F554E54000070B50C46E1
:101480000546FFF7C1FF064607A030F81600FFF734
:1014900045FA0AA050F8260000F062FD28462146D1
:1014A000BDE8704000F046B80B010C010D010E01C3
:1014B0000F011001110112010E020F020B000100B9
:1014C0000C0001000D0001000E0001000F000100E2
:1014D0001000010011000100120001000E000200C6
:1014E0000F000200002904BF01207047042905D81D
:1014F000D0F8F80FC840C0F3C0007047052911BFED
:101500000020D0F8F80FC0B2C0097047B0B514463B
:101510000D46FFF779FF40F2641140F23C12C2F22F
:101520000001C2F2000242F8204041F82050BFF30F
:101530004F8FB0BDB0B50C460546FFF7D3FF00286E
:1015400004BF0320B0BDD5F8F80F000707D5D5F8C4
:10155000F80F00F00700A0421CBF0120B0BD002022
:10156000C5F8F84FB0BD000080B542F20000C4F2EB
:101570000000016841F00101016040F28C10C2F2EC
:1015800000000068002818BF8047BFF34F8F80BD60
:1015900080B543F20000C4F20000016841F001018F
:1015A000016040F28C10C2F200004068002818BFB1
:1015B0008047BFF34F8F80BD016841F0010101609A
:1015C0007047000000EB8100026203647047000076
:1015D000B0B5044600F012F805462046FFF7ECFFD0
:1015E00043F6F850C0F200004457204601F024FDB5
:1015F0002046BDE8B040FFF763BD00000146002073
:1016000008A200BF52F820308B4208BF704701305B
:101610000228F7D143F6F97104A0C0F20001372285
:1016200001F05AFD0020004000300040696E7374E4
:10163000616E6365203C2041525241595F53495AC3
:101640004528735F67696E74426173657329000092
:1016500010B5FFF7D3FF044643F6BC50C0F20000BC
:1016600040F28C1130F81400C2F20001002241F85F
:101670002420FFF787F943F6C050C0F2000050F86D
:101680002400BDE8104000F06BBC0000F0B581B054
:101690001C4615460E460746FFF7B0FF022101EA39
:1016A000460165F38201396040F28C11C2F20001FB
:1016B00041F8204001B0F0BD04A0FFF751FC00BF8D
:1016C000FFF7BEFBC0B2FFF771FCF9E748656C6C31
:1016D0006F20576F726C642E0D0A0000B0B582B097
:1016E0004CF200040120C4F20804ADF806002046C4
:1016F000032100F09DF82046032100F099F82046D0
:10170000022100F095F80DF10605204603210E2276
:101710002B4600F05BF82046032103222B4600F005
:1017200055F82046022102222B4600F04FF80320F4
:101730000E2100F073F80320032100F06FF802205F
:10174000022100F06BF802B0B0BD000010B542F20B
:101750000004C4F200042046FFF77AFF43F2151399
:10176000C0F20003204600210022FFF78FFF204631
:1017700000216FF040024023FFF724FF2046FFF7CF
:1017800027FF04F54054204600F084F90522C0F6F6
:1017900000422046002100F073F9204600F078F95D
:1017A0004FF0402000F0A0F941F6C563C0F20003FD
:1017B0004FF040200021022200F0F0F94FF04020CD
:1017C0000021BDE8104000F071B9000093F800C09E
:1017D000BCF1000F14D093F801C000EB810001238D
:1017E00000F5085103FA02F2BCF1000F08BF00F542
:1017F0000A510A604FF4005143581A43425070474F
:1018000000EB81004FF400514FF0010C43580CFAEB
:1018100002F223EA020242507047000001EB40103E
:101820004CF20001C4F2080101224254704700004A
:1018300010B506290CD217A030F811000C46FFF79E
:1018400087F817A050F82400BDE8104000F088BBCE
:1018500002A00BA12E2201F03FFC00BF706F72743A
:10186000203C2041525241595F53495A4528735FE9
:101870006770696F436C6F636B4E616D6529000023
:10188000647269766572732F66736C5F6770696FD7
:101890002E6300000E000F001000110009020A0262
:1018A0000E0000000F0000001000000011000000FA
:1018B000090002000A0002004EF20C10C4F20800F7
:1018C000006870474EF20C31C4F20801086070479E
:1018D000002818BF42F6AF7070470000B0B584B062
:1018E000002841D00D46002949D00446287B0A280B
:1018F0004DD2684600F014FF287A696801280091EB
:1019000001D1022003E0022814BF002003208DF83B
:101910000400687AA97A0138B0FA80F040098DF89D
:101920000500002918BF0121E87A8DF80810002869
:1019300018BF01208DF80900287B43F6D051C0F272
:10194000000151F8200000212A68ADF80B1069460B
:1019500000F040FF18B1FFF7BBFF04B0B0BD287B1B
:101960002070002004B0B0BD43F6F27043F6DC6195
:10197000C0F20000C0F20001DC2201F0ADFB43F632
:10198000DC6108A0C0F20001DD2201F0A5FB43F6F6
:10199000906043F6DC61C0F20000C0F20001DE227C
:1019A00001F09AFB636F6E666967000080B570B1E5
:1019B000C9B122B3007843F6D053C0F2000353F804
:1019C000200000F0ABFFBDE88040FFF781BF43F689
:1019D000F27043F6DC61C0F20000C0F200014FF487
:1019E000987201F079FB43F6D76043F6DC61C0F2F0
:1019F0000000C0F2000140F2311201F06DFB43F62D
:101A0000566043F6DC61C0F20000C0F200014FF402
:101A1000997201F061FB000080B560B1B9B112B3F9
:101A2000007843F6D053C0F2000353F8200001F0D1
:101A3000DFFA002080BD43F6F27043F6DC61C0F2AD
:101A40000000C0F2000140F2451201F045FB43F6F0
:101A5000D76043F6DC61C0F20000C0F200014FF431
:101A6000A37201F039FB43F6566043F6DC61C0F225
:101A70000000C0F2000140F2471201F02DFB00000F
:101A8000130D6FF31F5200EB8100C250704700002E
:101A9000FEF734BFFEF790BF41F20001C4F200012F
:101AA00040F2013241F820207047000010B578B1B3
:101AB0000C4600F067F843F6C850C0F20000045727
:101AC000204601F0C9FA2046BDE81040FFF7FEBAF3
:101AD00044F23F0044F24C01C0F20000C0F20001A9
:101AE00040F2DD1201F0F8FAB0B540B30446B0F1AF
:101AF000402F4FF0000519D140F29410C2F20000BF
:101B0000002100BF40F8215001310829FAD10020FE
:101B10004FF4C061002500BF01FA00F2033018281D
:101B200045EA0205F8D1B4F1402F01D02563B0BDDC
:101B3000FEF74AFF122000F013FA2563B0BD44F20D
:101B40003F0044F24C01C0F20000C0F20001362216
:101B500001F0C2FA816A0022B2EB116F4FEA116103
:101B60001CBFC26AC262084670470000012202FA26
:101B700001F1016270470000012202FA01F1C16126
:101B8000704700000368012202FA01F1426A0B4229
:101B900018BF70470A4018BF41627047F0B581B066
:101BA00038B31E46154604460F46FFF7E5FF2046AC
:101BB0003946FFF7DBFF40F29410C2F2000040F814
:101BC000276020680121B94040EA0102EB0658BFB6
:101BD00020EA01020820226015F0110F08BF0C2036
:101BE0002150A8074FF0140058BF1820215001B011
:101BF000F0BD44F23F0044F24C01C0F20000C0F2DC
:101C00000001AC2201F068FA10B54FF040204FF00F
:101C10004024FFF79FFF40F29411C2F200010A68CE
:101C200012B10146002090472068C00704D14FF050
:101C300040200021FFF7A6FFBFF34F8F10BD00002B
:101C400010B54FF040204FF04024FFF783FF40F2E3
:101C50009411C2F200014A6812B101460120904776
:101C60002068800704D44FF040200121FFF78AFF4D
:101C7000BFF34F8F10BD000010B54FF040204FF064
:101C80004024FFF767FF40F29411C2F200018A6816
:101C900012B10146022090472068400704D44FF05B
:101CA00040200221FFF76EFFBFF34F8F10BD0000F1
:101CB00010B54FF040204FF04024FFF74BFF40F2AB
:101CC0009411C2F20001CA6812B101460320904784
:101CD0002068000704D44FF040200321FFF752FF93
:101CE000BFF34F8F10BD000010B54FF040204FF0F4
:101CF0004024FFF72FFF40F29411C2F200010A695D
:101D000012B10146042090472068C00604D44FF069
:101D100040200421FFF736FFBFF34F8F10BD0000B6
:101D200010B54FF040204FF04024FFF713FF40F272
:101D30009411C2F200014A6912B101460520904790
:101D40002068800604D44FF040200521FFF71AFFD9
:101D5000BFF34F8F10BD000010B54FF040204FF083
:101D60004024FFF7F7FE40F29411C2F200018A69A5
:101D700012B10146062090472068400604D44FF077
:101D800040200621FFF7FEFEBFF34F8F10BD00007D
:101D900010B54FF040204FF04024FFF7DBFE40F23B
:101DA0009411C2F20001CA6912B10146072090479E
:101DB0002068000604D44FF040200721FFF7E2FE20
:101DC000BFF34F8F10BD0000C1B2012202FA01F132
:101DD00040F23062000AC4F2000242F8201070475C
:101DE000C1B2012202FA01F140F23062000AC4F2EB
:101DF000000242F820107047C1B2012202FA01F13C
:101E000040F22062000AC4F2000242F8201070473B
:101E100004484FF080610160034801688906FCD5E1
:101E2000704700BF300600405400024009490F22AD
:101E30008842094938BF0D22884208484FF00C01FA
:101E400038BF0B22026041600B218160C2600161DA
:101E5000416170470195BA0A01E1F50500000240B1
:101E6000EFF30980BFF36F8F154B1A681EF0100F48
:101E700008BF20ED108A20E9F04F10602DE909001D
:101E80004FF0400080F31188BFF34F8FBFF36F8F87
:101E900001F0CEFD4FF0000080F31188BDE809008D
:101EA00019680868B0E8F04F1EF0100F08BFB0ECDA
:101EB000108A80F30988BFF36F8F704700BF00BF9F
:101EC000A400002080B5FFF7F7FC013009A005A1B0
:101ED00008BF0846FFF744F80820BDE88040FFF738
:101EE000F1BC00BF4C454432206973206F6E0D0A6F
:101EF000000000004C454432206973206F66660D77
:101F00000A00000081B220291ED20122B0F5403F14
:101F100002FA01F109D30020C4F20400816000BF7D
:101F200002680A409142FBD00DE040F20012000C22
:101F3000C4F2000202EB8003196400BF52F82030A3
:101F40000B409942FAD0704743F6277043F635713B
:101F5000C0F20000C0F200015B2201F0BDF80000F9
:101F600010B5044600F006F82046BDE81040FFF723
:101F7000C9BF000081B220291BD20122B0F5403F29
:101F800002FA01F108D30020C4F20400416000BF4E
:101F900002680A42FCD00BE040F20012000CC4F2CE
:101FA000000202EB8003196252F820300B42FBD092
:101FB000704743F6277043F63571C0F20000C0F257
:101FC0000001322201F088F880B590B144F240223D
:101FD000A1FB0001C0F20F02914212D240F60012A2
:101FE000C0F23D020023FEF72DFBBDE88040FFF765
:101FF00047B843F6FB610CA0C0F20001D02201F00B
:102000006BF843F6FB6103A0C0F20001D22201F09D
:1020100063F800BF636F756E74203C3D2055494ED8
:102020005433325F4D415800305520213D206465C6
:102030006C61795F75730000000000000000000013
:10204000074B19680868B0E8F04F80F30988BFF3C0
:102050006F8F4FF0000080F31188704700BF00BF02
:10206000A4000020B0B5A9B10546E0B10C46284651
:1020700000211022FEF734FB207A012828731CBFB0
:1020800043F22150B0BDE16805F10800BDE8B04061
:1020900000F012B943F6086109A0C0F2000140F255
:1020A000313201F019F843F6496043F60861C0F295
:1020B0000000C0F2000140F2363201F00DF800BF1E
:1020C000636F6E666967000070B5C0B10D4611B3ED
:1020D0000446FEF7DBFF216829B1FEF7E3FF43F278
:1020E0002256304670BD2560FEF7DCFF28460021F1
:1020F00004220026FEF7F4FA30462C6070BD43F649
:10210000496043F60861C0F20000C0F2000140F2ED
:10211000214200F0E1FF43F6326043F60861C0F26D
:102120000000C0F2000140F2224200F0D5FF0000A2
:10213000B0B588B10D46D9B1044628460021042225
:10214000FEF7CEFAFEF7A2FF616801316160FEF78B
:10215000A9FF00202C60B0BD43F6496043F608613A
:10216000C0F20000C0F2000140F2E73200F0B4FF1C
:1021700043F63D6043F60861C0F20000C0F2000182
:102180004FF47A7200F0A8FF58B10B46A9B19446FB
:10219000FAB10246006840B311461A46634600F0A1
:1021A00033B843F6326043F60861C0F20000C0F273
:1021B000000140F21F3200F08FFF43F65D6043F6EE
:1021C0000861C0F20000C0F200014FF4487200F054
:1021D00083FF43F6566043F60861C0F20000C0F288
:1021E000000140F2213200F077FF43F6F27043F62F
:1021F0000861C0F20000C0F2000140F2263200F097
:102200006BFF0000FFF7C0BF39B1017B012904D18A
:10221000083011461A4600F085B843F22150704745
:1022200039B1017B012904D1083011461A4600F06A
:10223000A3B843F22150704758B10B46A9B1944658
:10224000FAB10246006840B311461A466346FFF7EA
:10225000E7BF43F63D6043F60861C0F20000C0F2FC
:10226000000140F20E3200F037FF43F65D6043F6A6
:102270000861C0F20000C0F2000140F20F3200F02D
:102280002BFF43F6566043F60861C0F20000C0F22F
:1022900000014FF4447200F01FFF43F6F27043F662
:1022A0000861C0F20000C0F2000140F2153200F0F7
:1022B00013FF0000FFF7C0BF80B584B0B9B1F0B123
:1022C0004A680B890192ADF80830B1F80B200B6811
:1022D000ADF80A20897A00938DF80C106946FFF753
:1022E000FDFA002818BF43F2215004B080BD43F628
:1022F000646108A0C0F200018B2200F0EDFE43F6FD
:10230000496043F66461C0F20000C0F200018C2213
:1023100000F0E2FE73657269616C436F6E66696717
:102320000000000018B171B1CAB1FFF73FBB43F61E
:10233000496043F66461C0F20000C0F2000140F25F
:10234000191200F0C9FE43F65D6043F66461C0F205
:102350000000C0F200014FF48D7200F0BDFE43F6A4
:10236000566043F66461C0F20000C0F2000140F222
:102370001B1200F0B1FE000018B171B1CAB1FFF735
:102380004BBB43F6496043F66461C0F20000C0F203
:10239000000140F20B1200F09FFE43F65D6043F631
:1023A0006461C0F20000C0F200014FF4867200F0D8
:1023B00093FE43F6566043F66461C0F20000C0F23B
:1023C000000140F20D1200F087FE00002DE9F04FF1
:1023D0008FB09B4615460E4607464FF0000905ACE8
:1023E0000020CDF81490CDF80C90019003E000BFD0
:1023F0000123D84701373A78252A05D0002A00F072
:10240000F68028462146F3E778784FF00008A0F1DF
:10241000300109290DD800BF08EB880100EB41010C
:10242000B878A1F13008A0F130010A2907F10107BD
:10243000F2D378782E2804D1B878013730380A28BA
:10244000FAD317F801AFBAF17804AAF1460018BF21
:10245000012432281BD8DFE800F01F1A1A1A1A1AB2
:102460001A1A1A1A1A1A1A1A1A1A1A1A1F1A1A1AC7
:102470001A1A1A1A1A1A1F9F581A1F1A1A581A1AB1
:102480001A1A1A1F1F1A1AA31A1F1A1A1F0005ACAC
:10249000284621465246ABE74AF02000782814D15E
:1024A000314651F8040BBAF178060DF11B0902917F
:1024B00018BF01260390484603A900221023009666
:1024C000FEF780FC8144019001E002960124AAF10C
:1024D000620013282BD8012101FA00F046F2010115
:1024E000C0F20801084222D00299BAF1700F51F8E7
:1024F000040BCDE902102AD0BAF16F0F29D0BAF13E
:10250000620F14BF0A23022324E056F8040B0DF1D6
:102510001B090490484604A901220A23B446012657
:1025200000966646FEF74EFC81440190B4E70198A0
:1025300005ACA8EB0003284621462022D847029E7E
:10254000B9F1000F19D14FF00009013753E71023FB
:1025500000E008230DF11B06304603A90022009479
:10256000FEF730FC05AC06EB00090190A8EB000378
:10257000284621462022D847029E99F800000028CC
:102580003FF438AFC2B2284621460123D84719F894
:10259000010D0028F6D12DE716F8042B05AC30E725
:1025A00056F804ABBAF1000F1ED05046FEF7A1F862
:1025B00005AC0190A8EB0003284621462022D8470D
:1025C0009AF8000000283FF415AFB046AAF10106C2
:1025D000C2B2284621460123D847B07801360028E8
:1025E000F6D14646013706E705AC013703E7059803
:1025F0000FB0BDE8F08F000080B54FF0400080F3D1
:102600001188BFF36F8FBFF34F8F01F087FA30B19E
:102610004EF60450CEF200004FF0805101600020D1
:1026200080F3118880BD00004EF68850CEF2000085
:10263000016841F47001016040F20001C0F2000144
:1026400040F8801C40F22020C4F200000021C0F8B5
:10265000E4103821016000F001B80000704700006C
:10266000B0B582B043F2A57000240125C0F200008D
:1026700010A1BE2200230095019401F01DFA01284B
:1026800013D141F2B960C0F2000015A1BE220023AF
:102690000095019401F010FA012804BF02B0B0BD0A
:1026A00012A0FEF75DFC00BFFEE705A0FEF758FC98
:1026B000FEE700BF7469636B5F7461736B000000B9
:1026C00048656C6C6F207461736B20637265617414
:1026D000696F6E206661696C6564212E0D0A0000C9
:1026E0004750434841525F7461736B004750434801
:1026F0004152207461736B206372656174696F6EFF
:10270000206661696C6564212E0D0A00426800290B
:1027100022F4807318BF42F4807343607047000056
:10272000B0B570B10021102204460025FDF7D8FF96
:102730004FF4E1304FF4803184E82300A581A57384
:10274000B0BD43F6D67103A0C0F2000140F22112E1
:1027500000F0C2FC4E554C4C20213D20636F6E664C
:10276000696700000146002008A200BF52F820302F
:102770008B4208BF704701300A28F7D143F6D67163
:102780000CA0C0F20001432200F0A6FC006008404B
:1027900000700840008008400090084000A00840F9
:1027A0000060094000700940008009400090094025
:1027B00000A0094069203C2046534C5F46454154E7
:1027C0005552455F534F435F55534152545F434FFA
:1027D000554E54002DE9F04128B10D4600291CBF8B
:1027E0009046002A07D143F6D6713CA0C0F2000102
:1027F000C62200F071FC01210446FEF73FFE08B13D
:10280000BDE8F081687AD0B1D4F8000E40F0011034
:10281000C4F8000ED4F8080E20F47060C4F8080E56
:10282000E87AD4F8081E00F00F0041EA0020C4F84E
:10283000080ED4F8080E40F00100C4F8080E287AFB
:10284000D0B1D4F8000E40F00210C4F8000ED4F855
:10285000080E20F47020C4F8080E287BD4F8081E57
:1028600000F00F0041EA0040C4F8080ED4F8080E4A
:1028700040F00200C4F8080E697995F804C04022BF
:10288000AB7902EA811103F003026B7BE8796CF308
:10289000051141EA820103F00206AF7B41EAC03034
:1028A00003F0010340EA862007F0010740EA833085
:1028B00040EA073040F00100206029682046424687
:1028C00000F082F8002818BFBDE8F081A97A204600
:1028D000FFF71CFF0020BDE8F08100BF2128284E33
:1028E000554C4C203D3D206261736529207C7C2045
:1028F000284E554C4C203D3D20636F6E666967291C
:10290000207C7C20283055203D3D20737263436C31
:102910006F636B5F487A292900000000B0B500287A
:1029200018BF00290BD143F6497043F6D671C0F2A7
:102930000000C0F2000140F2B91200F0CDFBD0F867
:10294000003E9B0702D401231846B0BD42B341F2BA
:10295000506C00BFD0F8043E5B06FBD5D0F8043EB7
:102960009B0720D4D0F808E084685FEA8E434FEAE2
:102970004E4541F24F6358BF0CEAE5735FEA0E45DE
:1029800044EA0E0448BF41F24E63846033B9D0F884
:10299000303E013A01F8013BDCD100231846B0BDBE
:1029A00000231846B0BDD0F8001E41F24D6341F43B
:1029B0000031C0F8001ED0F8041E41F00201C0F83A
:1029C000041E1846B0BD00002DE9F04718B10029DB
:1029D00018BF002A08D143F6D67129A0C0F2000121
:1029E00040F24B1200F078FB03681B052ED402EB7B
:1029F00082034CF6CD484FEA430C4FEA011E0F23E9
:102A00004FF0FF34CCF6CC484FF0FF3A4FF00F09AF
:102A100005E000BF013B072BAEEB010E23D9BCFB49
:102A2000FEF7053F7E0C042EF4D8A7FB0867FF08CD
:102A30005E1C7D1C7543B2FBF5F54E1B38BF6E1A4C
:102A4000A6423EBF9946BA463446E3E703685B04B4
:102A50005CBF0020BDE8F087B2FBF1F101390162F3
:102A60000020BDE8F0870021B1EB1A4F11BF41F201
:102A70005160C0F82890C0F820A00020BDE8F08781
:102A80002128284E554C4C203D3D2062617365291C
:102A9000207C7C202830203D3D206261756472617D
:102AA00074655F42707329207C7C202830203D3D76
:102AB00020737263436C6F636B5F487A292900004F
:102AC0002DE9F04381B000281CBF0C46002908D135
:102AD00043F6D6711EA0C0F2000140F2022200F0BF
:102AE000FBFA984617460546FFF73CFE0646204689
:102AF000002130224FF00009FDF7F2FD022084F89A
:102B00002D0084F82C90C4E90978D5F8080E42F617
:102B1000A131C0F3034084F82F00D5F8080EC0F2AD
:102B20000001C0F3032084F82E0028462246FEF759
:102B3000EDFC04A08057FEF7BDFA002001B0BDE80F
:102B4000F08300BF0E0F1011121314152829000076
:102B50002128284E554C4C203D3D2062617365294B
:102B6000207C7C20284E554C4C203D3D2068616ED9
:102B7000646C65292900000038B1018C428C9142B7
:102B80003CBFC0690144881A704743F6EA7043F6B7
:102B9000D671C0F20000C0F20001522200F09CFA8F
:102BA0002DE9F04F81B000281CBF0D46002908D147
:102BB00043F6D67183A0C0F2000140F24E3200F01D
:102BC0008BFA0446286908B1012703E0AF69002F9A
:102BD00018BF01276E68D4F8040E002E18BF012616
:102BE000800716D5D4F8040E40F00200C4F8040E95
:102BF000D4F8000E40F40030C4F8000ED5F824C01C
:102C0000BCF1000F05D0AB6A2046294641F24D6267
:102C1000E0474FF000094FF00A084FF0020A4FF06A
:102C2000040B00BFF80703D0D4F8041E490608D4EB
:102C3000F10700F08C80D4F8041E890640F18780EB
:102C400030B1D4F8040E400604D4012754E000BF8C
:102C5000002756E0286968B1D4F8300EE96808709A
:102C6000286901382861E8680130E860286950B3B4
:102C700001272CE0A8690028E7D0284600F0B4F826
:102C800038B16F6A2FB1AB6A2046294641F24C62D7
:102C9000B847284600F0A8F840B1688CE9690130CF
:102CA00088421ABF688C013000206884D4F8300E46
:102CB000A9692A8C8854288CE9690130884242D15C
:102CC000A5F82090C1E7AF69002F18BF0127286938
:102CD00090B9A869002808BFC4F8148E85F82DA003
:102CE000D5F824C0BCF1000F06D0AB6A20462946B7
:102CF00041F24762E04700BFF0074FF000063FF4A3
:102D000091AFD4F8040E012680067FF58BAF2868BA
:102D100001260078C4F8200E6868013868602868C9
:102D200001302860686800287FF47CAF0026C4F872
:102D300014BE85F82C60E06840F00800E060F807F9
:102D40007FF472AF74E7288C013028847DE7E06857
:102D5000000744BF606A5FEA007014D4A86910B12C
:102D600001B0BDE8F08F2869D4F8081EC1F3034113
:102D7000D8B18842F4D84FF47022D4F8081E02EB80
:102D80000040000C17E095F82C000028E6D12069DF
:102D900040F0080020616F6A002FDFD0AB6A204648
:102DA000294641F24662B847D8E795F82F0081429C
:102DB000D6D0D4F8081E60F31341C4F8081E01B041
:102DC000BDE8F08F284E554C4C20213D20626173A8
:102DD000652920262620284E554C4C20213D206870
:102DE000616E646C6529000010B548B10446FFF7B8
:102DF000C3FEE169401A0130B0FA80F0400910BD0D
:102E000043F6EA7043F6D671C0F20000C0F200014A
:102E1000662200F061F900002DE9F04728B10D4667
:102E200000291CBF1746002A0BD143F69E7043F6BB
:102E3000D671C0F20000C0F2000140F2AF2200F0F3
:102E40004BF97C68002C6CD082463868002868D02A
:102E500095F82D00032804BF41F24560BDE8F087D6
:102E6000A869994610B3FEF717F980462846FFF780
:102E700083FE68B3844238BF2046A4EB000448B305
:102E8000002100BFAA696B8C4E1CD25C3B685A546F
:102E90006A8CEB6901329A421ABF698C01310021B8
:102EA000698486423146EDD3B4B928E038680026FB
:102EB000E86003202C616C6185F82D00DAF8100EB3
:102EC00040F00800CAF8100EB9F1000F12D125E049
:102ED000002601E0002694B138683044E860032001
:102EE0002C616C6185F82D004046FEF7DFF8B9F1E2
:102EF000000F13D00020C9F80060BDE8F0874046FD
:102F0000FEF7D4F86F6A002FF1D0AB6A504629461D
:102F100041F24762B847B9F1000FEBD10020BDE89C
:102F2000F08743F66D7043F6D671C0F20000C0F230
:102F3000000140F2B52200F0CFF8000018B10029DE
:102F400018BF002A0BD143F69E7043F6D671C0F22B
:102F50000000C0F2000140F2372200F0BDF8D2F8C4
:102F600004C0BCF1000F19D01368BBB191F82C302C
:102F7000012B04BF41F24460704712680A600122CD
:102F8000C1F804C0C1F808C081F82C20D0F8101E88
:102F900041F00401C0F8101E0020704743F66D7028
:102FA00043F6D671C0F20000C0F2000140F23D22AB
:102FB00000F092F841F2466082420DD041F2476043
:102FC000824218BF704740F2181040F25801C2F216
:102FD0000000C2F2000107E040F2B51040F2B41167
:102FE000C2F20000C2F2000100220A7002707047B3
:102FF000002818BF00290BD143F6497043F6D6715B
:10300000C0F20000C0F2000140F28B1200F064F840
:10301000D0F8003EDB0708BF70474AB1D0F8043E45
:103020009B06FBD511F8013B013AC0F8203EF5D1D3
:1030300081680907FCD57047002848BF704700F039
:103040001F01012202FA01F14EF280224009CEF264
:10305000000242F820107047002848BF704700F077
:103060001F01012202FA01F14EF280224009CEF244
:10307000000242F820107047002848BF704700F057
:103080001F01012202FA01F14EF200124009CEF2B4
:10309000000242F820107047002848BF704700F037
:1030A0001F01012202FA01F14EF200124009CEF294
:1030B000000242F820107047002848BF704700F017
:1030C0001F01012202FA01F14EF200124009CEF274
:1030D000000242F82010704713460A46014602A03B
:1030E000FDF73EFF00BEFDE74153534552542045D6
:1030F00052524F52202220257320223A2066696CBA
:10310000652022257322204C696E652022256422C9
:10311000200A000080B5FEF7CFFB013009A005A111
:1031200008BF0846FDF71CFF4FF48040BDE8804013
:10313000FEF7C8BB4C454431206973206F6E0D0A01
:10314000000000004C454431206973206F66660D15
:103150000A0000008AB046F200064FF48670C4F2FE
:103160000806FDF79BFBFDF78DFBFDF7FBFAFDF76E
:103170005BFB06AD2846FFF7D3FA4FF4E13006902B
:1031800040F20110ADF820000020FDF775FC02466A
:1031900030462946FFF71EFB40F27405C2F20005D7
:1031A00042F6B572C0F20002304629460023FFF70E
:1031B00087FC40F20400C2F200000490532040F269
:1031C000B5140590C2F200040120207004AA304614
:1031D0002946B346FFF7B2FE20780028FCD140F222
:1031E0006C00C2F2000040F2600102900820C2F2BE
:1031F00000010390CDE90010FEF770FAFEF7A6FA81
:10320000FFF72EFA23A0FDF7ABFE40F2181540F2AF
:10321000580840F2740740F2B41AC2F20005C2F234
:1032200000084FF00109C2F20007C2F2000A02AE24
:10323000287850B998F8000038B1584639466A469F
:10324000002385F80090FFF7E7FD207848B99AF849
:10325000000030B158463946324684F80090FFF7F6
:103260006DFE98F800000028E2D19AF800000028CE
:10327000DED140F26C0040F26001C2F20000C2F206
:1032800000010822FDF70FFA88F800908AF80090F4
:10329000CEE700BF48656C6C6F20576F726C640D91
:1032A0000A000000F0B581B00D4642F6502140F210
:1032B000A406C2F20001C2F200060F68316804469B
:1032C000081D00F08DFA68B1601C1AD1CDB13068CC
:1032D000011D42F62820C2F2000001B0BDE8F04016
:1032E00000F0C0BA306842F6C812C06AC2F20002EA
:1032F0000121136801FA00F023EA00001060601C4D
:10330000E4D03068E41944600BD340F2B000C2F25C
:10331000000000683168043101B0BDE8F04000F001
:1033200083BA40F2A800C2F200000068316804319C
:1033300000F07AFA42F60020C2F2000001688C42E6
:1033400038BF046001B0F0BD70B5044600F098FAD3
:1033500042F6B810C2F20000016840F2A405013143
:103360000160C2F20005296842F61C26C2F200067E
:1033700041B1306860B92868E16AC06A884298BF84
:103380002C6005E02C600068012801D100F0C8F82D
:1033900042F6C410C2F20000016842F6C8120131C0
:1033A0000160E164E06AC2F2000201211368814019
:1033B0001943116040F2B40100EB8000C2F2000139
:1033C00001EB8000211D00F04DFA00F07DFA30681D
:1033D00080B12868E16AC06A884228BF70BD4EF695
:1033E0000450CEF200004FF080510160BFF34F8FC8
:1033F000BFF36F8F70BD000040F2B610C2F2000044
:10340000C21D22F0070210F0070CA0EB020318BF48
:10341000104642F62022C2F200020021C2E9000159
:103420004FF42052BCF1000F18BF03F520520244A4
:10343000083A40F2AC0322F00702C2F200031A601D
:10344000C2E90011111A1A68C0E9002142F6FC1005
:10345000C2F20000016042F6F810C2F20000016002
:1034600042F6CC10C2F2000001210170704700004A
:103470002DE9F0470A9C8146206B16460F46089DB1
:103480009200A5219846FDF72BF9206B00EB8600F2
:10349000A0F1040020F00706A6648FB1781E04F1A5
:1034A0003301012210F8013F01F8013F03781BB1FD
:1034B000142A02F10102F5D3002084F8470002E04B
:1034C000002084F83400DDF824A00027201D042DFE
:1034D00028BF0425E562C4E9155700F0A1F904F1FD
:1034E000180000F09DF9C5F105002461A0611720C6
:1034F000646200BF44F8207001301C28FAD100201B
:10350000206784F8740030464946424600F036F998
:10351000BAF1000F206018BFCAF80040BDE8F0877C
:10352000B0B540F2B4050024C2F20005281900F03D
:103530006BF91434642CF9D142F6D014C2F20004B1
:10354000204600F061F942F6E415C2F20005284673
:1035500000F05AF942F60820C2F2000000F054F9D7
:1035600042F63C20C2F2000000F04EF942F628205C
:10357000C2F2000000F048F940F2A800C2F20000D8
:10358000046040F2B000C2F200000560B0BD00006F
:1035900080B542F62022C2F2000200BF1146126836
:1035A0008242FBD3D1F804C001EB0C03834203D168
:1035B0004068604448600846D0F804E000EB0E0321
:1035C000934201D0026010E040F2AC03C2F200036B
:1035D000D3F800C0624506D00B6852681B6872447D
:1035E000C0E9003201E0C0F800C0814218BF0860A5
:1035F00080BD000040F2A800C2F200000168096826
:1036000021B10068C068C068406801E04FF0FF3039
:1036100042F60021C2F200010860704781B000202C
:10362000009040F25C00C2F2000000684FF04001E0
:1036300081F31188BFF36F8FBFF34F8F013001D03B
:10364000FEE700BF00980028FCD001B070470000E2
:103650002DE9F047054600F0E3F940F2AC0AC2F26A
:10366000000ADAF80000002808BFFFF7C5FE42F69E
:10367000CC10C2F2000006780024002E18BF4FF0D4
:103680000046002D69D016EA050066D105F1080153
:1036900011F007001EBF081A00F108015FEA41702F
:1036A0001FD142F6F818C2F20008D8F80090481E60
:1036B00048453AD242F62020C2F2000007683D4653
:1036C00055F8042F8A421AD23868A0B138463F68AC
:1036D0003D4655F8042F8A4211D23B68002BF5D1A4
:1036E0000DE04FF0400080F31188BFF36F8FBFF300
:1036F0004F8F00BFFEE742F62020C2F20000DAF84A
:1037000000309F4211D004683B68521A112A0360AE
:1037100011D3781843070AD04FF0400080F3118886
:10372000BFF36F8FBFF34F8FFEE7002415E04260B9
:103730002960FFF72DFF42F6FC112868C2F2000154
:103740000B68A9EB0002304308349A42C8F8002005
:1037500038BF0A6028600020386000F085FA6007F2
:1037600009D04FF0400080F31188BFF36F8FBFF393
:103770004F8F00BFFEE72046BDE8F087034643F2C7
:103780001D60C0F200004FF0807C21F0010103E9D0
:1037900003106FF0020043F8240CA3F1440043F837
:1037A000202C704782B000F0B3F908A401AD01905D
:1037B00001992046FDF7D4FB4FF48040FEF782F8D4
:1037C0002846C82100F0D8F8F2E700BF5469636BBF
:1037D000436F756E742069732025640D0A00000024
:1037E000D0E90123016993604B68D0F808C0834297
:1037F000CCF8042001D182684A6000220261086886
:1038000001380860086870474FF0FF31024642F8FF
:10381000081F00214260C0E90322016070470000D8
:10382000002101617047000080B5D1F800C01CF193
:10383000010207D000F108039E465B681A686245E2
:10384000FAD901E0D0F810E0DEF804204A60916077
:10385000C1F808E0CEF80410086101680131016088
:1038600080BD0000D0F800C043689A688A609A68FA
:103870004B605160996008610CF101010160704773
:103880004FF0400080F31188BFF36F8FBFF34F8F6D
:1038900040F25C00C2F2000001684A1C026001B103
:1038A00070474EF60450CEF200000068000608BFD4
:1038B00070474FF0400080F31188BFF36F8FBFF364
:1038C0004F8F00BFFEE7000040F25C00C2F2000034
:1038D000016839B10139016018BF7047002080F3D9
:1038E000118870474FF0400080F31188BFF36F8F4D
:1038F000BFF34F8FFEE70000B0B5002808BFB0BD92
:10390000044642F6CC10C2F20000007854F8041CC1
:10391000002818BF4FF0004008420CD0A4F1080561
:103920002A6892B14FF0400080F31188BFF36F8F87
:10393000BFF34F8FFEE74FF0400080F31188BFF3D5
:103940006F8FBFF34F8F00BFFEE721EA000044F8FE
:10395000040C00F065F842F6F811C2F2000154F8C8
:10396000040C0A68104408602846FFF711FEBDE801
:10397000B04000F079B90000B0B590B10D46D1B1BA
:10398000044642F6C010C2F200000068E8B14FF0F1
:10399000400080F31188BFF36F8FBFF34F8F00BFDC
:1039A000FEE74FF0400080F31188BFF36F8FBFF345
:1039B0004F8F00BFFEE74FF0400080F31188BFF348
:1039C0006F8FBFF34F8F00BFFEE700F029F842F67C
:1039D0005020C2F2000000682268904202EB05010C
:1039E00003D29142216003D308E09142216001D3C8
:1039F000814203D9081A0021FFF754FC00F034F982
:103A0000002818BFB0BD4EF60450CEF200004FF0B3
:103A100080510160BFF34F8FBFF36F8FB0BD0000C7
:103A200042F6C010C2F20000016801310160704727
:103A300042F6C010C2F20000006830B142F65420D5
:103A4000C2F2000001210160704742F65420C2F228
:103A500000000021016042F6C810C2F200000068B8
:103A6000B0FA80F0C0B2C0F11F0040F2B40100EB28
:103A70008000C2F2000151F8202092B101EB8000D9
:103A800050F8041F4968021D9142016001D1496844
:103A90000160006840F2A401C068C2F20001086041
:103AA00070474FF0400080F31188BFF36F8FBFF372
:103AB0004F8F00BFFEE700002DE9F04383B00746BB
:103AC0009000984615468946FFF7C2FDD8B10646D4
:103AD0007820FFF7BDFD98B10446DDE90A102663A2
:103AE000CDE90010384649462A4643460294FFF77E
:103AF000BFFC2046FFF728FC012003B0BDE8F0839F
:103B00003046FFF7F9FE4FF0FF3003B0BDE8F08319
:103B100042F65020C2F20000006870472DE9F04FD5
:103B200081B042F6C010C2F20000006898B142F6BF
:103B3000BC10C2F20000016800240131016042F6AD
:103B40005420C2F200000068002818BF012420465B
:103B500001B0BDE8F08F42F65020C2F200000168CB
:103B60004E1C066020D340F2A800C2F2000001689B
:103B7000096841B14FF0400080F31188BFF36F8FA7
:103B8000BFF34F8FFEE740F2B002C2F200020168BD
:103B90001368036042F604201160C2F2000001685D
:103BA00001310160FFF726FD42F60020C2F200005D
:103BB0000068864201D20024C1E740F2A809C2F29F
:103BC0000009D9F800000024006800283ED042F621
:103BD000C81740F2A4084FF0010AC2F20007C2F26F
:103BE00000081DE0DBF82C0039680AFA00F21143E6
:103BF000396040F2B40100EB8000C2F2000101EB39
:103C000080002946FFF72EFEDBF82C00D8F80010C4
:103C1000C96AD9F800208842106828BF5446A8B164
:103C2000D9F80000C068D0F80CB05D4655F8040F14
:103C3000864213D32846FFF7D3FDDBF8280000287F
:103C4000D0D00BF11800FFF7CBFDCBE742F60021F7
:103C50004FF0FF30C2F20001086070E742F6002129
:103C6000C2F2000108606AE72DE9F04F81B042F628
:103C7000C014C2F20004206868B1FFF701FE20689A
:103C800001382060206880B10024FFF71DFE204627
:103C900001B0BDE8F08F4FF0400080F31188BFF312
:103CA0006F8FBFF34F8F00BFFEE742F6B810C2F22E
:103CB0000000006800285FD042F60826C2F2000625
:103CC000306842F65428C2F2000898B342F6C8158C
:103CD00040F2B40940F2A40A4FF0010BC2F2000511
:103CE000C2F20009C2F2000AF068C76807F11800C2
:103CF000FFF776FD3C1D2046FFF772FDF86A296844
:103D00000BFA00F2114300EB8000296009EB800000
:103D10002146FFF7A7FDF86ADAF80010C96A884261
:103D200028BFC8F800B030680028DDD1002F18BFC8
:103D3000FFF760FC42F6BC14C2F2000425685DB1D6
:103D4000012600BFFFF7EAFE002818BFC8F8006090
:103D5000013DF7D100202060D8F8000070B14EF688
:103D60000450CEF200004FF080510160BFF34F8F3E
:103D70000124BFF36F8F88E7002486E7002484E7DF
:103D800002E008C8121F08C1002AFAD17047704724
:103D9000002001E001C1121F002AFBD17047000082
:103DA000004200000203000062000000FF1F00004C
:103DB0000095BA0A00000000030000001300130081
:103DC0001300000013000000040506072021222331
:103DD00000600840007008400080084000900840E3
:103DE00000A00840006009400070094000800940C0
:103DF0000090094000A009400203626F6172642FC5
:103E0000626F6172642E6300636F6D706F6E656EBA
:103E1000742F73657269616C5F6D616E6167657245
:103E20002F73657269616C5F6D616E616765722E7B
:103E300063007265616448616E646C6500777269E5
:103E4000746548616E646C650073657269616C4885
:103E5000616E646C65006C656E677468006275669F
:103E600066657200636F6D706F6E656E742F73653B
:103E70007269616C5F6D616E616765722F736572E7
:103E800069616C5F706F72745F756172742E63002C
:103E9000636F6E6669672D3E696E7374616E6365EC
:103EA000203C202873697A656F6628735F557361BB
:103EB0007274416461707465724261736529202F68
:103EC0002073697A656F662855534152545F54795F
:103ED0007065202A2929006461746100636F6D7028
:103EE0006F6E656E742F756172742F757361727465
:103EF0005F616461707465722E63006472697665D7
:103F000072732F66736C5F636F6D6D6F6E2E6300DF
:103F1000647269766572732F66736C5F666C657820
:103F2000636F6D6D2E6300626974506F73203C2067
:103F30003332554C00647269766572732F66736C08
:103F40005F72657365742E63002128284E554C4CB2
:103F5000203D3D206261736529207C7C20284E55E0
:103F60004C4C203D3D2064617461292900212828A2
:103F700030203D3D20786665722D3E64617461534A
:103F8000697A6529207C7C20284E554C4C203D3D8B
:103F900020786665722D3E646174612929002128AC
:103FA000284E554C4C203D3D206261736529207C94
:103FB0007C20284E554C4C203D3D2068616E646C41
:103FC0006529207C7C20284E554C4C203D3D207896
:103FD000666572292900647269766572732F66734B
:103FE0006C5F75736172742E63004E554C4C2021CA
:103FF0003D2068616E646C6500443A2F6E78702FC6
:104000004E58502F53444B5F322E372E305F4C505A
:104010004335343630384A3531322F64657669633A
:1040200065732F4C504335343630382F64726976BF
:104030006572732F66736C5F67696E742E630062BE
:1040400061736520213D204E554C4C00443A2F6E43
:1040500078702F4E58502F53444B5F322E372E30EE
:104060005F4C504335343630384A3531322F646531
:1040700076696365732F4C504335343630382F647E
:104080007269766572732F66736C5F70696E742ED9
:1040900063007574696C69746965732F66736C5F0E
:1040A00064656275675F636F6E736F6C652E630026
:1040B0003020213D2073697A65004E554C4C2021FB
:1040C0003D206368006B5374617475735F53657250
:1040D00069616C4D616E616765725F53756363659D
:1040E0007373203D3D20737461747573000000008C
:1040F000104100000000002060000000803D000032
:104100007041000060000020F8290000903D000090
:10411000001BB700557361727420696E746572720A
:104120007570740D426F61726420726563656976A3
:1041300065732038206368617261637465727320EF
:104140007468656E2073656E6473207468656D6F46
:1041500075740D0A4E6F7720706C65617365206908
:104160006E7075743A0D0A0001000000AAAAAAAA8E
:0400000500000401F2
:00000001FF
